{
  "contractName": "Betting",
  "abi": [
    {
      "inputs": [],
      "payable": true,
      "stateMutability": "payable",
      "type": "constructor"
    },
    {
      "payable": true,
      "stateMutability": "payable",
      "type": "fallback"
    },
    {
      "constant": true,
      "inputs": [],
      "name": "maxAmountOfBets",
      "outputs": [
        {
          "internalType": "uint256",
          "name": "",
          "type": "uint256"
        }
      ],
      "payable": false,
      "stateMutability": "view",
      "type": "function"
    },
    {
      "constant": true,
      "inputs": [],
      "name": "minimumBet",
      "outputs": [
        {
          "internalType": "uint256",
          "name": "",
          "type": "uint256"
        }
      ],
      "payable": false,
      "stateMutability": "view",
      "type": "function"
    },
    {
      "constant": true,
      "inputs": [],
      "name": "numberOfBets",
      "outputs": [
        {
          "internalType": "uint256",
          "name": "",
          "type": "uint256"
        }
      ],
      "payable": false,
      "stateMutability": "view",
      "type": "function"
    },
    {
      "constant": true,
      "inputs": [],
      "name": "owner",
      "outputs": [
        {
          "internalType": "address payable",
          "name": "",
          "type": "address"
        }
      ],
      "payable": false,
      "stateMutability": "view",
      "type": "function"
    },
    {
      "constant": true,
      "inputs": [
        {
          "internalType": "address",
          "name": "",
          "type": "address"
        }
      ],
      "name": "playerInfo",
      "outputs": [
        {
          "internalType": "uint256",
          "name": "amountBet",
          "type": "uint256"
        },
        {
          "internalType": "uint16",
          "name": "teamSelected",
          "type": "uint16"
        }
      ],
      "payable": false,
      "stateMutability": "view",
      "type": "function"
    },
    {
      "constant": true,
      "inputs": [
        {
          "internalType": "uint256",
          "name": "",
          "type": "uint256"
        }
      ],
      "name": "players",
      "outputs": [
        {
          "internalType": "address payable",
          "name": "",
          "type": "address"
        }
      ],
      "payable": false,
      "stateMutability": "view",
      "type": "function"
    },
    {
      "constant": true,
      "inputs": [],
      "name": "totalBetOne",
      "outputs": [
        {
          "internalType": "uint256",
          "name": "",
          "type": "uint256"
        }
      ],
      "payable": false,
      "stateMutability": "view",
      "type": "function"
    },
    {
      "constant": true,
      "inputs": [],
      "name": "totalBetTwo",
      "outputs": [
        {
          "internalType": "uint256",
          "name": "",
          "type": "uint256"
        }
      ],
      "payable": false,
      "stateMutability": "view",
      "type": "function"
    },
    {
      "constant": false,
      "inputs": [],
      "name": "kill",
      "outputs": [],
      "payable": false,
      "stateMutability": "nonpayable",
      "type": "function"
    },
    {
      "constant": true,
      "inputs": [
        {
          "internalType": "address",
          "name": "player",
          "type": "address"
        }
      ],
      "name": "checkPlayerExists",
      "outputs": [
        {
          "internalType": "bool",
          "name": "",
          "type": "bool"
        }
      ],
      "payable": false,
      "stateMutability": "view",
      "type": "function"
    },
    {
      "constant": false,
      "inputs": [
        {
          "internalType": "uint8",
          "name": "_teamSelected",
          "type": "uint8"
        }
      ],
      "name": "bet",
      "outputs": [],
      "payable": true,
      "stateMutability": "payable",
      "type": "function"
    },
    {
      "constant": false,
      "inputs": [
        {
          "internalType": "uint16",
          "name": "teamWinner",
          "type": "uint16"
        }
      ],
      "name": "distributePrizes",
      "outputs": [],
      "payable": false,
      "stateMutability": "nonpayable",
      "type": "function"
    },
    {
      "constant": true,
      "inputs": [],
      "name": "amountOne",
      "outputs": [
        {
          "internalType": "uint256",
          "name": "",
          "type": "uint256"
        }
      ],
      "payable": false,
      "stateMutability": "view",
      "type": "function"
    },
    {
      "constant": true,
      "inputs": [],
      "name": "amountTwo",
      "outputs": [
        {
          "internalType": "uint256",
          "name": "",
          "type": "uint256"
        }
      ],
      "payable": false,
      "stateMutability": "view",
      "type": "function"
    }
  ],
  "bytecode": "0x60806040526103e8600555336000806101000a81548173ffffffffffffffffffffffffffffffffffffffff021916908373ffffffffffffffffffffffffffffffffffffffff160217905550655af3107a4000600181905550610bdc806100666000396000f3fe6080604052600436106100dd5760003560e01c80637904f6881161007f578063c38a8afd11610059578063c38a8afd14610340578063d0821b0e1461036b578063e08a96cd1461039c578063f71d96cb146103c7576100dd565b80637904f6881461027f5780638da5cb5b146102be578063c2b5a50414610315576100dd565b806341c0e1b5116100bb57806341c0e1b51461019e5780634b114691146101b5578063586ba59a146102295780637863117e14610254576100dd565b80630eacdf77146100df5780632ca8c6d31461010a5780634081d91614610135575b005b3480156100eb57600080fd5b506100f4610442565b6040518082815260200191505060405180910390f35b34801561011657600080fd5b5061011f61044c565b6040518082815260200191505060405180910390f35b34801561014157600080fd5b506101846004803603602081101561015857600080fd5b81019080803573ffffffffffffffffffffffffffffffffffffffff169060200190929190505050610452565b604051808215151515815260200191505060405180910390f35b3480156101aa57600080fd5b506101b36104f4565b005b3480156101c157600080fd5b50610204600480360360208110156101d857600080fd5b81019080803573ffffffffffffffffffffffffffffffffffffffff169060200190929190505050610585565b604051808381526020018261ffff1661ffff1681526020019250505060405180910390f35b34801561023557600080fd5b5061023e6105b7565b6040518082815260200191505060405180910390f35b34801561026057600080fd5b506102696105c1565b6040518082815260200191505060405180910390f35b34801561028b57600080fd5b506102bc600480360360208110156102a257600080fd5b81019080803561ffff1690602001909291905050506105c7565b005b3480156102ca57600080fd5b506102d36108df565b604051808273ffffffffffffffffffffffffffffffffffffffff1673ffffffffffffffffffffffffffffffffffffffff16815260200191505060405180910390f35b34801561032157600080fd5b5061032a610904565b6040518082815260200191505060405180910390f35b34801561034c57600080fd5b5061035561090a565b6040518082815260200191505060405180910390f35b61039a6004803603602081101561038157600080fd5b81019080803560ff169060200190929190505050610910565b005b3480156103a857600080fd5b506103b1610a74565b6040518082815260200191505060405180910390f35b3480156103d357600080fd5b50610400600480360360208110156103ea57600080fd5b8101908080359060200190929190505050610a7a565b604051808273ffffffffffffffffffffffffffffffffffffffff1673ffffffffffffffffffffffffffffffffffffffff16815260200191505060405180910390f35b6000600254905090565b60045481565b600080600090505b6006805490508110156104e9578273ffffffffffffffffffffffffffffffffffffffff166006828154811061048b57fe5b9060005260206000200160009054906101000a900473ffffffffffffffffffffffffffffffffffffffff1673ffffffffffffffffffffffffffffffffffffffff1614156104dc5760019150506104ef565b808060010191505061045a565b50600090505b919050565b6000809054906101000a900473ffffffffffffffffffffffffffffffffffffffff1673ffffffffffffffffffffffffffffffffffffffff163373ffffffffffffffffffffffffffffffffffffffff161415610583576000809054906101000a900473ffffffffffffffffffffffffffffffffffffffff1673ffffffffffffffffffffffffffffffffffffffff16ff5b565b60076020528060005260406000206000915090508060000154908060010160009054906101000a900461ffff16905082565b6000600354905090565b60025481565b6105cf610ab6565b600080905060008090506000809050600080600080600090505b6006805490508110156106eb576006818154811061060357fe5b9060005260206000200160009054906101000a900473ffffffffffffffffffffffffffffffffffffffff1691508861ffff16600760008473ffffffffffffffffffffffffffffffffffffffff1673ffffffffffffffffffffffffffffffffffffffff16815260200190815260200160002060010160009054906101000a900461ffff1661ffff1614156106de578188886103e8811061069e57fe5b602002019073ffffffffffffffffffffffffffffffffffffffff16908173ffffffffffffffffffffffffffffffffffffffff168152505086806001019750505b80806001019150506105e9565b5060018861ffff1614156107085760025493506003549450610713565b600354935060025494505b60008090505b8681101561084357600073ffffffffffffffffffffffffffffffffffffffff1688826103e8811061074657fe5b602002015173ffffffffffffffffffffffffffffffffffffffff16146108365787816103e8811061077357fe5b60200201519350600760008573ffffffffffffffffffffffffffffffffffffffff1673ffffffffffffffffffffffffffffffffffffffff16815260200190815260200160002060000154925087816103e881106107cc57fe5b602002015173ffffffffffffffffffffffffffffffffffffffff166108fc6103e8876103e88a02816107fa57fe5b046103e80186028161080857fe5b049081150290604051600060405180830381858888f19350505050158015610834573d6000803e3d6000fd5b505b8080600101915050610719565b50600760008273ffffffffffffffffffffffffffffffffffffffff1673ffffffffffffffffffffffffffffffffffffffff1681526020019081526020016000206000808201600090556001820160006101000a81549061ffff02191690555050606080600690805190602001906108bb929190610ada565b50600095506000945060006002819055506000600381905550505050505050505050565b6000809054906101000a900473ffffffffffffffffffffffffffffffffffffffff1681565b60035481565b60015481565b61091933610452565b1561092357600080fd5b60015434101561093257600080fd5b34600760003373ffffffffffffffffffffffffffffffffffffffff1673ffffffffffffffffffffffffffffffffffffffff168152602001908152602001600020600001819055508060ff16600760003373ffffffffffffffffffffffffffffffffffffffff1673ffffffffffffffffffffffffffffffffffffffff16815260200190815260200160002060010160006101000a81548161ffff021916908361ffff16021790555060063390806001815401808255809150509060018203906000526020600020016000909192909190916101000a81548173ffffffffffffffffffffffffffffffffffffffff021916908373ffffffffffffffffffffffffffffffffffffffff1602179055505060018160ff161415610a605734600260008282540192505081905550610a71565b346003600082825401925050819055505b50565b60055481565b60068181548110610a8757fe5b906000526020600020016000915054906101000a900473ffffffffffffffffffffffffffffffffffffffff1681565b60405180617d0001604052806103e890602082028038833980820191505090505090565b828054828255906000526020600020908101928215610b53579160200282015b82811115610b525782518260006101000a81548173ffffffffffffffffffffffffffffffffffffffff021916908373ffffffffffffffffffffffffffffffffffffffff16021790555091602001919060010190610afa565b5b509050610b609190610b64565b5090565b610ba491905b80821115610ba057600081816101000a81549073ffffffffffffffffffffffffffffffffffffffff021916905550600101610b6a565b5090565b9056fea265627a7a72315820aa206884f7fa3fcb8d3c0d6201561b6b69589db8268eab4e0c5047db20e98a8164736f6c63430005100032",
  "source": "pragma solidity >0.4.99;\n\ncontract Betting {\n    address payable public owner;\n    uint256 public minimumBet;\n    uint256 public totalBetOne;\n    uint256 public totalBetTwo;\n    uint256 public numberOfBets;\n    uint256 public maxAmountOfBets = 1000;\n    \n    address payable[] public players;\n    \n    struct Player {\n        uint256 amountBet;\n        uint16 teamSelected;\n    }\n    \n    // Address of the player => the user info\n    mapping(address => Player) public playerInfo;\n    function() external payable {}\n\n    constructor() public payable {\n        owner = msg.sender;\n        minimumBet = 100000000000000;\n    }\n    \n    function kill() public {\n        if (msg.sender == owner) {\n            selfdestruct(owner);\n        }\n    }\n    \n    // View - get result without needing a transaction (no gas because only your node has to run the calculation)\n    function checkPlayerExists(address player) public view returns(bool) {\n        for (uint256 i = 0; i < players.length; i++) {\n            if (players[i] == player) {\n                return true;\n            }\n        }\n        \n        return false;\n    }\n    \n    function bet(uint8 _teamSelected) public payable {\n        // Check if player checkPlayerExists\n        require(!checkPlayerExists(msg.sender));\n        \n        // Check if value sent by player is higher than minimum value\n        require(msg.value >= minimumBet);\n        \n        // Set the player informations - amount of bet and team _teamSelected\n        playerInfo[msg.sender].amountBet = msg.value;\n        playerInfo[msg.sender].teamSelected = _teamSelected;\n        \n        // Add the address of the player to players address\n        players.push(msg.sender);\n        \n        // Increment the stakes of the team selected with the player bet\n        if (_teamSelected == 1) {\n            totalBetOne += msg.value;\n        } else {\n            totalBetTwo += msg.value;\n        }\n    }\n    \n    function distributePrizes(uint16 teamWinner) public {\n        // Create a temporary in memory array with fixed size\n        address payable[1000] memory winners;\n        \n        uint256 count = 0; // Count for the array of winners\n        uint256 loserBet = 0; // Takes the value of all losers bets \n        uint256 winnerBet = 0; // Takes the value of all winners bets \n        address add;\n        uint256 playersBet;\n        address payable playerAddress;\n        \n        // Loop through the player array to check who selected the winning team \n        for (uint256 i = 0; i < players.length; i++) {\n            playerAddress = players[i];\n            \n            // If the player selected the winning team, we add his address to the winners array\n            if (playerInfo[playerAddress].teamSelected == teamWinner) {\n                winners[count] = playerAddress;\n                count++;\n            }\n        }\n        \n        // Define which bet sum is the loser and which is the winner\n        if (teamWinner == 1) {\n            winnerBet = totalBetOne;\n            loserBet = totalBetTwo;\n        } else {\n            winnerBet = totalBetTwo;\n            loserBet = totalBetOne;\n        }\n        \n        // Loop through the array of winners to give ethers to the winners\n        for (uint256 j = 0; j < count; j++) {\n            // Check that the address in this fixed array is not empty\n            if (winners[j] != address(0)) {\n                add = winners[j];\n                playersBet = playerInfo[add].amountBet;\n                \n                // Transfer money to user\n                winners[j].transfer((playersBet*(1000+(loserBet*1000/winnerBet)))/1000);\n            }\n        }\n        \n        delete playerInfo[playerAddress]; // Delete all players\n        \n        address payable[] memory empty_players_array;\n        \n        players = empty_players_array;\n        \n        // Reinitialize bets\n        loserBet = 0;\n        winnerBet = 0;\n        totalBetOne = 0;\n        totalBetTwo = 0;\n    }\n    \n    function amountOne() public view returns(uint256) {\n        return totalBetOne;\n    }\n    \n    function amountTwo() public view returns(uint256) {\n        return totalBetTwo;\n    }\n}",
  "sourcePath": "/Users/moraesc/Desktop/sports-betting-dapp/contracts/Betting.sol",
  "compiler": {
    "name": "solc",
    "version": "0.5.16+commit.9c3226ce.Emscripten.clang"
  },
  "schemaVersion": "3.4.2",
  "updatedAt": "2021-08-12T20:36:21.399Z",
  "networkType": "ethereum",
  "devdoc": {
    "methods": {}
  },
  "userdoc": {
    "methods": {}
  }
}